S0170000436F6D704533373550726F6A6563742E73726563C3
S113000059C0000072C0000070C000006EC0000043
S11300106CC000006AC0000068C0000066C0000038
S113002064C0000062C0000060C000005EC0000048
S11300305CC000005AC0000058C0000056C0000058
S113004054C0000052C0000050C000004EC0000068
S11300504CC000004AC0000048C0000046C0000078
S113006044C0000042C0000040C000003EC0000088
S11300703CC000003AC0000038C0000036C0000098
S113008034C0000032C0000030C000002EC00000A8
S11300902CC000002AC0000028C0000026C00000B8
S11300A024C0000022C0000020C000001EC00000C8
S11300B01CC0000011241FBECFEFD8E0DEBFCDBFAF
S11300C012E0A0E0B1E0E6EAF4E002C005900D928F
S11300D0A431B107D9F722E0A4E1B2E001C01D9236
S11300E0AA31B207E1F789D0DCC18ACFAF92BF92BF
S11300F0CF92DF92EF92FF920F931F93CF93DF93F0
S1130100A0E0B0E0EE24E394F12CAA24AA94BB244A
S1130110BA94C12CD12CC0E1D0E084B187010A2E5D
S113012002C0000F111F0A94E2F7802B84B94A2DF4
S11301305B2D6C2D7D2D04C06F5F7F4F4F5F5F4F34
S1130140CA014F3F2FEF5207B9F329B1FE01042E24
S113015002C0EE0FFF1F0A94E2F730E02E233F2384
S1130160232B89F429B130E02E233F23232BD1F311
S11301701092150210921402880F991F880F991F6C
S11301808A0F9B1F0EC064307105B4F284B10095D0
S1130190082304B91196A430B10509F0BECF80E15B
S11301A090E0DF91CF911F910F91FF90EF90DF903E
S11301B0CF90BF90AF900895E0ECF0E0908195FF70
S11301C0FDCF8093C6000895CF93DF93EC0188811F
S11301D0882329F02196F0DF89918111FCCFDF91EA
S11301E0CF9108959093C5008093C40088E18093D3
S11301F0C10086E08093C20008958AB18F708AB9E5
S11302008BB1806F8BB984B18F7084B985B18F70D5
S113021085B9259A87B1886387B987E690E0E2DFDC
S1130220C6E1D2E0E12CF12C6894CC24C1F8D12CA5
S11302300F2EF5E06F2EF02D712C0F2EF3E0AF2E64
S1130240B12CF02D88248394912C4E2C5F2CE091BA
S11302500401F0910501EE0FFF1FE55FFD4F808162
S113026091818650914099F4188219821A821B82D6
S11302704398449845983ADF8F5E9E4FFC018081F5
S1130280882329F39092050180920401E0CFE09144
S11302900401F0910501EE0FFF1FE55FFD4F808122
S11302A091818252914009F05FC0188219821A82AA
S11302B01B8280E391E088DF43984498459A870144
S11302C00EC014DF8F5E9E4FFC018081882339F0BD
S11302D0F801EA5EFD4F80836FDF0F5F1F4FFE0161
S11302E001900020E9F73197E651F240349748F342
S11302F09401C701FC01E050FF4F5081FC01EA5E0C
S1130300FD4F4081541711F0242D352D0196843072
S1130310910581F7232B41F082E491E055DFD092DF
S11303200501C09204011BC08FE491E04DDF862DCE
S1130330972D439AFFEF27E833E1F15020403040F6
S1130340E1F700C0000043984FEFE7E8F3E14150C4
S1130350E040F040E1F700C00000019751F7188237
S113036019821A821B8273CFE0910401F091050176
S1130370EE0FFF1FE55FFD4F80819181865691400E
S1130380A1F4188219821A821B8243984598449AD0
S1130390ADDE8F5E9E4FFC018081882309F457CF28
S11303A0B0920501A092040152CF188219821A82D8
S11303B01B8283E791E008DF43984498459A8701BC
S11303C00EC094DE8F5E9E4FFC018081882339F03D
S11303D0F801EA5EFD4F8083EFDE0F5F1F4FFE01E1
S11303E001900020E9F73197E651F240349748F341
S11303F08CE491E0E9DE8BE891E0E6DECE01E4DE18
S113040083EA91E0E1DE72DE8F5E9E4FFC01808123
S11304108823C9F3833251F584EC91E0D5DEF09260
S11304200501E0920401862D972D439A449A459A3A
S1130430FFEF27E833E1F15020403040E1F700C0FE
S113044000004398449845984FEFE7E8F3E14150A2
S1130450E040F040E1F700C00000019731F744E0CC
S113046050E0BE0180E091E00DD007C088ED91E03E
S1130470ABDED0920501C0920401188219821A825F
S11304801B82E5CEFB01DC014150504048F0019055
S11304900D920020C9F701C01D9241505040E0F771
S10904A00895F894FFCF5B
S11304A631323334020069646C654C6F636B656486
S11304B6003132334134353642373839432A302312
S11304C644006C6F636B6564417474656D7074008D
S11304D6456E7465722050617373636F64653A0D7B
S11304E60A000D0A436F7272656374210D0A000DCA
S11304F60A496E636F727265637420706173736305
S11305066F64650D0A0069646C65556E6C6F636B88
S11305166564000D0A456E746572204E6577205039
S1130526617373636F64653A0D0A004E65772070D4
S1130536617373636F64652073656C656374656466
S11305463A20000D0A5072657373202320746F20BD
S1130556736574206E65772070617373636F646569
S11305662E0D0A004E65772070617373636F6465A0
S113057620736574210D0A0050617373636F64659B
S113058620686173206265656E20646973636172B5
S11305966465642E0D0A00756E6C6F636B65644E3C
S11305A6657750617373776F726400060122016682
S10705B601F7010044
S9030000FC
